S00D0000696D6167652E7372656314
S11300000C942A000C9447000C9447000C9447006D
S11300100C9447000C9447000C9447000C9449003E
S11300200C9447000C9447000C9476000C94470001
S11300300C9447000C9447000C9447000C94470020
S11300400C9447000C9447000C9447000C94470010
S11300500C94470011241FBECFE5D8E0DEBFCDBF0E
S113006010E0A4E6B0E001C01D92AA36B107E1F7A2
S113007010E0A0E6B0E0E6EAF4E002C005900D92DC
S1130080A436B107D9F70E94D4000C9451020C9401
S113009000001F920F920FB60F9211248F9380913C
S11300A065008F5F80936500809165008C3338F024
S11300B010926500809166008F5F80936600809146
S11300C066008C3338F010926600809168008F5F70
S11300D08093680080916800883110F01092680065
S11300E08F910F900FBE0F901F9018951F920F9233
S11300F00FB60F9211246F937F938F939F938091E8
S113010064008F5F80936400809164006CE00E94BF
S11301102A01992301F586B390E08F7090708B309B
S1130120910599F08C3091051CF40797A1F409C04E
S11301308D30910521F00E9771F481E003C082E0C7
S113014001C083E08093690006C0809167008F5FDF
S11301508170809367009F918F917F916F910F9031
S11301600FBE0F901F90189583B7886083BF83B725
S1130170816083BF83B7846083BF89B7826089BF8E
S113018086E98CBF08958EB588608EBD8EB5846077
S11301908EBD8EB581608EBD89B7806189BF88E0D0
S11301A09DE39BBD8ABD089581E080936900109210
S11301B0670017BA8FE088BB8FEF84BB89E790E0B4
S11301C00E94B3010E94AE016CE370E00E9436010C
S11301D0809365000E94AE016CE370E00E943601DA
S11301E0809366000E94AE0168E170E00E943601CF
S11301F0809368000E94B4000E94C30078948091A8
S11302006700882319F08130D1F711C0809169000B
S1130210823039F0833041F0813089F78091650074
S113022017C08091660014C08091680011C080914D
S11302306900823039F0833041F0813001F78091D8
S1130240650005C08091660002C0809168008095B9
S113025085BBD5CF991B79E004C0991F961708F088
S1130260961B881F7A95C9F78095089597FB092EE8
S113027007260AD077FD04D00CD006D000201AF44B
S1130280709561957F4F0895F6F7909581959F4FEE
S11302900895AA1BBB1B51E107C0AA1FBB1FA617C9
S11302A0B70710F0A61BB70B881F991F5A95A9F71B
S11302B080959095BC01CD010895A0E0B0E0E3E6FF
S11302C0F1E00C940002EC01A880B980CA80DB80C4
S11302D0A114B104C104D10441F484E2A82E89ED2F
S11302E0B82E8BE5C82E87E0D82EC601B5012DE1C6
S11302F033EF41E050E00E94DD0127EA31E440E0C1
S113030050E00E94BE017B018C01C601B5012DE1C4
S113031033EF41E050E00E94DD01CA01B9012CEE47
S113032034EF4FEF5FEF0E94BE016E0D7F1D801F03
S1130330911F97FF04C061507040804090486883CB
S113034079838A839B839B013F77C901CDB7DEB74D
S1130350EAE00C941C020E945D01089580E690E09E
S11303600E945D010895A0E0B0E080936000909346
S11303706100A0936200B09363000895629FD0016E
S1130380739FF001829FE00DF11D649FE00DF11D4C
S1130390929FF00D839FF00D749FF00D659FF00DFB
S11303A09927729FB00DE11DF91F639FB00DE11DE8
S11303B0F91FBD01CF011124089597FB092E0526CD
S11303C00ED057FD04D04BD00AD0001C38F4509501
S11303D04095309521953F4F4F4F5F4F0895F6F765
S11303E090958095709561957F4F8F4F9F4F08959D
S11303F02F923F924F925F926F927F928F929F9231
S1130400AF92BF92CF92DF92EF92FF920F931F931E
S1130410CF93DF93CDB7DEB7CA1BDB0B0FB6F894CF
S1130420DEBF0FBECDBF09942A88398848885F840F
S11304306E847D848C849B84AA84B984C884DF8080
S1130440EE80FD800C811B81AA81B981CE0FD11D64
S11304500FB6F894DEBF0FBECDBFED010895A1E243
S11304601A2EAA1BBB1BFD010DC0AA1FBB1FEE1F2A
S1130470FF1FA217B307E407F50720F0A21BB30B75
S1130480E40BF50B661F771F881F991F1A9469F7F1
S113049060957095809590959B01AC01BD01CF014D
S10904A00895F894FFCF5B
S10704A6010000004D
S9030000FC
